{
  "_format": "hh3-artifact-1",
  "contractName": "SimpleEscrow",
  "sourceName": "contracts/SimpleEscrow.sol",
  "abi": [
    {
      "inputs": [],
      "name": "InvalidAmount",
      "type": "error"
    },
    {
      "inputs": [],
      "name": "InvalidState",
      "type": "error"
    },
    {
      "inputs": [],
      "name": "ReentrancyDetected",
      "type": "error"
    },
    {
      "inputs": [],
      "name": "TransferFailed",
      "type": "error"
    },
    {
      "inputs": [],
      "name": "Unauthorized",
      "type": "error"
    },
    {
      "anonymous": false,
      "inputs": [
        {
          "indexed": true,
          "internalType": "uint256",
          "name": "escrowId",
          "type": "uint256"
        },
        {
          "indexed": true,
          "internalType": "address",
          "name": "buyer",
          "type": "address"
        },
        {
          "indexed": true,
          "internalType": "address",
          "name": "seller",
          "type": "address"
        },
        {
          "indexed": false,
          "internalType": "uint256",
          "name": "amount",
          "type": "uint256"
        }
      ],
      "name": "EscrowCreated",
      "type": "event"
    },
    {
      "anonymous": false,
      "inputs": [
        {
          "indexed": true,
          "internalType": "uint256",
          "name": "escrowId",
          "type": "uint256"
        },
        {
          "indexed": true,
          "internalType": "address",
          "name": "buyer",
          "type": "address"
        },
        {
          "indexed": false,
          "internalType": "uint256",
          "name": "amount",
          "type": "uint256"
        }
      ],
      "name": "FundsRefunded",
      "type": "event"
    },
    {
      "anonymous": false,
      "inputs": [
        {
          "indexed": true,
          "internalType": "uint256",
          "name": "escrowId",
          "type": "uint256"
        },
        {
          "indexed": true,
          "internalType": "address",
          "name": "seller",
          "type": "address"
        },
        {
          "indexed": false,
          "internalType": "uint256",
          "name": "amount",
          "type": "uint256"
        }
      ],
      "name": "FundsReleased",
      "type": "event"
    },
    {
      "inputs": [
        {
          "internalType": "address payable",
          "name": "_seller",
          "type": "address"
        }
      ],
      "name": "createEscrow",
      "outputs": [
        {
          "internalType": "uint256",
          "name": "",
          "type": "uint256"
        }
      ],
      "stateMutability": "payable",
      "type": "function"
    },
    {
      "inputs": [],
      "name": "escrowCount",
      "outputs": [
        {
          "internalType": "uint256",
          "name": "",
          "type": "uint256"
        }
      ],
      "stateMutability": "view",
      "type": "function"
    },
    {
      "inputs": [
        {
          "internalType": "uint256",
          "name": "",
          "type": "uint256"
        }
      ],
      "name": "escrows",
      "outputs": [
        {
          "internalType": "address payable",
          "name": "buyer",
          "type": "address"
        },
        {
          "internalType": "address payable",
          "name": "seller",
          "type": "address"
        },
        {
          "internalType": "uint256",
          "name": "amount",
          "type": "uint256"
        },
        {
          "internalType": "enum SimpleEscrow.State",
          "name": "state",
          "type": "uint8"
        }
      ],
      "stateMutability": "view",
      "type": "function"
    },
    {
      "inputs": [
        {
          "internalType": "uint256",
          "name": "_escrowId",
          "type": "uint256"
        }
      ],
      "name": "getEscrow",
      "outputs": [
        {
          "internalType": "address",
          "name": "",
          "type": "address"
        },
        {
          "internalType": "address",
          "name": "",
          "type": "address"
        },
        {
          "internalType": "uint256",
          "name": "",
          "type": "uint256"
        },
        {
          "internalType": "enum SimpleEscrow.State",
          "name": "",
          "type": "uint8"
        }
      ],
      "stateMutability": "view",
      "type": "function"
    },
    {
      "inputs": [
        {
          "internalType": "uint256",
          "name": "_escrowId",
          "type": "uint256"
        }
      ],
      "name": "refund",
      "outputs": [],
      "stateMutability": "nonpayable",
      "type": "function"
    },
    {
      "inputs": [
        {
          "internalType": "uint256",
          "name": "_escrowId",
          "type": "uint256"
        }
      ],
      "name": "releaseFunds",
      "outputs": [],
      "stateMutability": "nonpayable",
      "type": "function"
    }
  ],
  "bytecode": "0x608060405260016002553480156013575f5ffd5b50610750806100215f395ff3fe608060405260043610610054575f3560e01c8063012f52ee14610058578063278ecde1146100c15780634d68282f146100e2578063675ac67a146101015780637d19e59614610124578063f6a8419e14610143575b5f5ffd5b348015610063575f5ffd5b506100a8610072366004610649565b5f6020819052908152604090208054600182015460028301546003909301546001600160a01b0392831693919092169160ff1684565b6040516100b89493929190610694565b60405180910390f35b3480156100cc575f5ffd5b506100e06100db366004610649565b610156565b005b3480156100ed575f5ffd5b506100e06100fc366004610649565b6102e2565b34801561010c575f5ffd5b5061011660015481565b6040519081526020016100b8565b34801561012f575f5ffd5b506100a861013e366004610649565b61045e565b6101166101513660046106c9565b6104fa565b5f8181526020819052604090205481906001600160a01b0316331461018d576040516282b42960e81b815260040160405180910390fd5b815f805f8381526020819052604090206003015460ff1660028111156101b5576101b5610660565b146101d35760405163baf3f0f760e01b815260040160405180910390fd5b6002546001146101f65760405163c5f2be5160e01b815260040160405180910390fd5b60028080555f8581526020819052604080822060038101805460ff191685179055928301548354915190926001600160a01b039092169190829084908381818185875af1925050503d805f8114610268576040519150601f19603f3d011682016040523d82523d5f602084013e61026d565b606091505b505090508061028f576040516312171d8360e31b815260040160405180910390fd5b816001600160a01b0316887f80b577b4fc190ab86d963549e29f496afd079c5d81a2480d61217d4b5060a28c856040516102cb91815260200190565b60405180910390a350506001600255505050505050565b5f8181526020819052604090205481906001600160a01b03163314610319576040516282b42960e81b815260040160405180910390fd5b815f805f8381526020819052604090206003015460ff16600281111561034157610341610660565b1461035f5760405163baf3f0f760e01b815260040160405180910390fd5b6002546001146103825760405163c5f2be5160e01b815260040160405180910390fd5b60028080555f8581526020819052604080822060038101805460ff19166001908117909155938101549381015491519093926001600160a01b039092169190829084908381818185875af1925050503d805f81146103fb576040519150601f19603f3d011682016040523d82523d5f602084013e610400565b606091505b5050905080610422576040516312171d8360e31b815260040160405180910390fd5b816001600160a01b0316887f6e3c6096795c8298a218b2cfb8bde42726ff7c9a3d27b4d3ba41ab7f74feb5fb856040516102cb91815260200190565b5f81815260208181526040808320815160808101835281546001600160a01b0390811682526001830154169381019390935260028082015492840192909252600381015484938493849384939091606084019160ff16908111156104c4576104c4610660565b60028111156104d5576104d5610660565b9052508051602082015160408301516060909301519199909850919650945092505050565b5f345f0361051b5760405163162908e360e11b815260040160405180910390fd5b6001600160a01b038216610541576040516282b42960e81b815260040160405180910390fd5b600180545f9182610551836106f6565b90915550604080516080810182523381526001600160a01b03861660208201523491810191909152909150606081015f90525f8281526020818152604091829020835181546001600160a01b039182166001600160a01b0319918216178355928501516001808401805492909316919094161790559183015160028084019190915560608401516003840180549193909260ff199092169184908111156105fa576105fa610660565b0217905550506040513481526001600160a01b0385169150339083907f9405ad0a6208539879349284d71265479b1623846f70303da1f9890d6e8c10a79060200160405180910390a492915050565b5f60208284031215610659575f5ffd5b5035919050565b634e487b7160e01b5f52602160045260245ffd5b6003811061069057634e487b7160e01b5f52602160045260245ffd5b9052565b6001600160a01b0385811682528416602082015260408101839052608081016106c06060830184610674565b95945050505050565b5f602082840312156106d9575f5ffd5b81356001600160a01b03811681146106ef575f5ffd5b9392505050565b5f6001820161071357634e487b7160e01b5f52601160045260245ffd5b506001019056fea264697066735822122047323184e0810f66fd186e06c8b7a43fedcbce78685901cd85307928ae126cc364736f6c634300081c0033",
  "linkReferences": {},
  "deployedLinkReferences": {},
  "immutableReferences": {},
  "inputSourceName": "project/contracts/SimpleEscrow.sol",
  "buildInfoId": "solc-0_8_28-259cbb5ff43cc9fdf96131ad5fcda0202378d101"
}